{
  "contractName": "DenToken",
  "abi": [
    {
      "inputs": [],
      "stateMutability": "nonpayable",
      "type": "constructor"
    },
    {
      "anonymous": false,
      "inputs": [
        {
          "indexed": true,
          "internalType": "address",
          "name": "owner",
          "type": "address"
        },
        {
          "indexed": true,
          "internalType": "address",
          "name": "spender",
          "type": "address"
        },
        {
          "indexed": false,
          "internalType": "uint256",
          "name": "value",
          "type": "uint256"
        }
      ],
      "name": "Approval",
      "type": "event"
    },
    {
      "anonymous": false,
      "inputs": [
        {
          "indexed": true,
          "internalType": "address",
          "name": "previousOwner",
          "type": "address"
        },
        {
          "indexed": true,
          "internalType": "address",
          "name": "newOwner",
          "type": "address"
        }
      ],
      "name": "OwnershipTransferred",
      "type": "event"
    },
    {
      "anonymous": false,
      "inputs": [
        {
          "indexed": true,
          "internalType": "address",
          "name": "from",
          "type": "address"
        },
        {
          "indexed": true,
          "internalType": "address",
          "name": "to",
          "type": "address"
        },
        {
          "indexed": false,
          "internalType": "uint256",
          "name": "value",
          "type": "uint256"
        }
      ],
      "name": "Transfer",
      "type": "event"
    },
    {
      "inputs": [
        {
          "internalType": "address",
          "name": "owner",
          "type": "address"
        },
        {
          "internalType": "address",
          "name": "spender",
          "type": "address"
        }
      ],
      "name": "allowance",
      "outputs": [
        {
          "internalType": "uint256",
          "name": "",
          "type": "uint256"
        }
      ],
      "stateMutability": "view",
      "type": "function"
    },
    {
      "inputs": [
        {
          "internalType": "address",
          "name": "spender",
          "type": "address"
        },
        {
          "internalType": "uint256",
          "name": "amount",
          "type": "uint256"
        }
      ],
      "name": "approve",
      "outputs": [
        {
          "internalType": "bool",
          "name": "",
          "type": "bool"
        }
      ],
      "stateMutability": "nonpayable",
      "type": "function"
    },
    {
      "inputs": [
        {
          "internalType": "address",
          "name": "account",
          "type": "address"
        }
      ],
      "name": "balanceOf",
      "outputs": [
        {
          "internalType": "uint256",
          "name": "",
          "type": "uint256"
        }
      ],
      "stateMutability": "view",
      "type": "function"
    },
    {
      "inputs": [],
      "name": "cap",
      "outputs": [
        {
          "internalType": "uint256",
          "name": "",
          "type": "uint256"
        }
      ],
      "stateMutability": "view",
      "type": "function"
    },
    {
      "inputs": [],
      "name": "decimals",
      "outputs": [
        {
          "internalType": "uint8",
          "name": "",
          "type": "uint8"
        }
      ],
      "stateMutability": "view",
      "type": "function"
    },
    {
      "inputs": [
        {
          "internalType": "address",
          "name": "spender",
          "type": "address"
        },
        {
          "internalType": "uint256",
          "name": "subtractedValue",
          "type": "uint256"
        }
      ],
      "name": "decreaseAllowance",
      "outputs": [
        {
          "internalType": "bool",
          "name": "",
          "type": "bool"
        }
      ],
      "stateMutability": "nonpayable",
      "type": "function"
    },
    {
      "inputs": [
        {
          "internalType": "address",
          "name": "spender",
          "type": "address"
        },
        {
          "internalType": "uint256",
          "name": "addedValue",
          "type": "uint256"
        }
      ],
      "name": "increaseAllowance",
      "outputs": [
        {
          "internalType": "bool",
          "name": "",
          "type": "bool"
        }
      ],
      "stateMutability": "nonpayable",
      "type": "function"
    },
    {
      "inputs": [],
      "name": "name",
      "outputs": [
        {
          "internalType": "string",
          "name": "",
          "type": "string"
        }
      ],
      "stateMutability": "view",
      "type": "function"
    },
    {
      "inputs": [],
      "name": "owner",
      "outputs": [
        {
          "internalType": "address",
          "name": "",
          "type": "address"
        }
      ],
      "stateMutability": "view",
      "type": "function"
    },
    {
      "inputs": [],
      "name": "renounceOwnership",
      "outputs": [],
      "stateMutability": "nonpayable",
      "type": "function"
    },
    {
      "inputs": [],
      "name": "symbol",
      "outputs": [
        {
          "internalType": "string",
          "name": "",
          "type": "string"
        }
      ],
      "stateMutability": "view",
      "type": "function"
    },
    {
      "inputs": [],
      "name": "totalSupply",
      "outputs": [
        {
          "internalType": "uint256",
          "name": "",
          "type": "uint256"
        }
      ],
      "stateMutability": "view",
      "type": "function"
    },
    {
      "inputs": [
        {
          "internalType": "address",
          "name": "recipient",
          "type": "address"
        },
        {
          "internalType": "uint256",
          "name": "amount",
          "type": "uint256"
        }
      ],
      "name": "transfer",
      "outputs": [
        {
          "internalType": "bool",
          "name": "",
          "type": "bool"
        }
      ],
      "stateMutability": "nonpayable",
      "type": "function"
    },
    {
      "inputs": [
        {
          "internalType": "address",
          "name": "sender",
          "type": "address"
        },
        {
          "internalType": "address",
          "name": "recipient",
          "type": "address"
        },
        {
          "internalType": "uint256",
          "name": "amount",
          "type": "uint256"
        }
      ],
      "name": "transferFrom",
      "outputs": [
        {
          "internalType": "bool",
          "name": "",
          "type": "bool"
        }
      ],
      "stateMutability": "nonpayable",
      "type": "function"
    },
    {
      "inputs": [
        {
          "internalType": "address",
          "name": "newOwner",
          "type": "address"
        }
      ],
      "name": "transferOwnership",
      "outputs": [],
      "stateMutability": "nonpayable",
      "type": "function"
    },
    {
      "inputs": [
        {
          "internalType": "address",
          "name": "_contractAddress",
          "type": "address"
        }
      ],
      "name": "setWolfPackContractAddress",
      "outputs": [],
      "stateMutability": "nonpayable",
      "type": "function"
    },
    {
      "inputs": [
        {
          "internalType": "uint16",
          "name": "wolfId",
          "type": "uint16"
        }
      ],
      "name": "getLastClaimTimestampForWolf",
      "outputs": [
        {
          "internalType": "uint64",
          "name": "",
          "type": "uint64"
        }
      ],
      "stateMutability": "view",
      "type": "function"
    },
    {
      "inputs": [
        {
          "internalType": "uint16",
          "name": "wolfId",
          "type": "uint16"
        }
      ],
      "name": "claimDen",
      "outputs": [],
      "stateMutability": "nonpayable",
      "type": "function"
    },
    {
      "inputs": [
        {
          "internalType": "uint16",
          "name": "_wolfId",
          "type": "uint16"
        }
      ],
      "name": "availableDenForWolf",
      "outputs": [
        {
          "internalType": "uint256",
          "name": "amountToClaim",
          "type": "uint256"
        },
        {
          "internalType": "uint256",
          "name": "denAvalibleToRelease",
          "type": "uint256"
        }
      ],
      "stateMutability": "view",
      "type": "function"
    }
  ],
  "bytecode": "0x60a06040523480156200001157600080fd5b506a3353993d799232794000006040518060400160405280600981526020017f44656e20546f6b656e00000000000000000000000000000000000000000000008152506040518060400160405280600381526020017f44454e0000000000000000000000000000000000000000000000000000000000815250620000aa6200009e6200013360201b60201c565b6200013b60201b60201c565b8160049080519060200190620000c2929190620001ff565b508060059080519060200190620000db929190620001ff565b5050506000811162000124576040517f08c379a00000000000000000000000000000000000000000000000000000000081526004016200011b90620002f1565b60405180910390fd5b80608081815250505062000389565b600033905090565b60008060009054906101000a900473ffffffffffffffffffffffffffffffffffffffff169050816000806101000a81548173ffffffffffffffffffffffffffffffffffffffff021916908373ffffffffffffffffffffffffffffffffffffffff1602179055508173ffffffffffffffffffffffffffffffffffffffff168173ffffffffffffffffffffffffffffffffffffffff167f8be0079c531659141344cd1fd0a4f28419497f9722a3daafe3b4186f6b6457e060405160405180910390a35050565b8280546200020d9062000324565b90600052602060002090601f0160209004810192826200023157600085556200027d565b82601f106200024c57805160ff19168380011785556200027d565b828001600101855582156200027d579182015b828111156200027c5782518255916020019190600101906200025f565b5b5090506200028c919062000290565b5090565b5b80821115620002ab57600081600090555060010162000291565b5090565b6000620002be60158362000313565b91507f45524332304361707065643a20636170206973203000000000000000000000006000830152602082019050919050565b600060208201905081810360008301526200030c81620002af565b9050919050565b600082825260208201905092915050565b600060028204905060018216806200033d57607f821691505b602082108114156200035457620003536200035a565b5b50919050565b7f4e487b7100000000000000000000000000000000000000000000000000000000600052602260045260246000fd5b60805161263d620003a56000396000610a0d015261263d6000f3fe608060405234801561001057600080fd5b50600436106101215760003560e01c806370a08231116100ad578063a457c2d711610071578063a457c2d714610321578063a9059cbb14610351578063dd62ed3e14610381578063f2fde38b146103b1578063f8812281146103cd57610121565b806370a082311461027a578063715018a6146102aa5780638da5cb5b146102b457806395d89b41146102d257806397d5404d146102f057610121565b806318160ddd116100f457806318160ddd146101c057806323b872dd146101de578063313ce5671461020e578063355274ea1461022c578063395093511461024a57610121565b80630609f9391461012657806306ab842b1461015657806306fdde0314610172578063095ea7b314610190575b600080fd5b610140600480360381019061013b9190611a4d565b6103e9565b60405161014d91906122b6565b60405180910390f35b610170600480360381019061016b9190611a4d565b610422565b005b61017a61084e565b6040516101879190612055565b60405180910390f35b6101aa60048036038101906101a59190611a11565b6108e0565b6040516101b7919061203a565b60405180910390f35b6101c86108fe565b6040516101d59190612272565b60405180910390f35b6101f860048036038101906101f391906119c2565b610908565b604051610205919061203a565b60405180910390f35b610216610a00565b60405161022391906122d1565b60405180910390f35b610234610a09565b6040516102419190612272565b60405180910390f35b610264600480360381019061025f9190611a11565b610a31565b604051610271919061203a565b60405180910390f35b610294600480360381019061028f9190611934565b610add565b6040516102a19190612272565b60405180910390f35b6102b2610b26565b005b6102bc610bae565b6040516102c9919061201f565b60405180910390f35b6102da610bd7565b6040516102e79190612055565b60405180910390f35b61030a60048036038101906103059190611a4d565b610c69565b60405161031892919061228d565b60405180910390f35b61033b60048036038101906103369190611a11565b610e25565b604051610348919061203a565b60405180910390f35b61036b60048036038101906103669190611a11565b610f10565b604051610378919061203a565b60405180910390f35b61039b60048036038101906103969190611986565b610f2e565b6040516103a89190612272565b60405180910390f35b6103cb60048036038101906103c69190611934565b610fb5565b005b6103e760048036038101906103e29190611934565b6110ad565b005b6000600760008361ffff1661ffff16815260200190815260200160002060009054906101000a900467ffffffffffffffff169050919050565b6000600a60009054906101000a900473ffffffffffffffffffffffffffffffffffffffff1673ffffffffffffffffffffffffffffffffffffffff16636352211e836040518263ffffffff1660e01b815260040161047f9190612257565b60206040518083038186803b15801561049757600080fd5b505afa1580156104ab573d6000803e3d6000fd5b505050506040513d601f19601f820116820180604052508101906104cf919061195d565b90503373ffffffffffffffffffffffffffffffffffffffff168173ffffffffffffffffffffffffffffffffffffffff161461053f576040517f08c379a0000000000000000000000000000000000000000000000000000000008152600401610536906121d7565b60405180910390fd5b60008061054b84610c69565b915091506907baab4146b63dd00000600860008661ffff1661ffff1681526020019081526020016000205410156107685760008214156105c0576040517f08c379a00000000000000000000000000000000000000000000000000000000081526004016105b7906120f7565b60405180910390fd5b8181106106675781600960008661ffff1661ffff16815260200190815260200160002060008282546105f29190612308565b92505081905550816006600082825461060b9190612308565b92505081905550600061061f308585610908565b905080610661576040517f08c379a0000000000000000000000000000000000000000000000000000000008152600401610658906121b7565b60405180910390fd5b50610763565b678ac7230489e800008110610756576000678ac7230489e800008261068c91906124f3565b8261069791906123d1565b9050600081846106a791906123d1565b90506106b485828861116d565b81600960008861ffff1661ffff16815260200190815260200160002060008282546106df9190612308565b9250508190555081600660008282546106f89190612308565b92505081905550600061070c308785610908565b90508061074e576040517f08c379a0000000000000000000000000000000000000000000000000000000008152600401610745906121b7565b60405180910390fd5b505050610762565b61076183838661116d565b5b5b610848565b60008114156107ac576040517f08c379a00000000000000000000000000000000000000000000000000000000081526004016107a390612117565b60405180910390fd5b80600960008661ffff1661ffff16815260200190815260200160002060008282546107d79190612308565b9250508190555080600660008282546107f09190612308565b925050819055506000610804308584610908565b905080610846576040517f08c379a000000000000000000000000000000000000000000000000000000000815260040161083d906121b7565b60405180910390fd5b505b50505050565b60606004805461085d906124c1565b80601f0160208091040260200160405190810160405280929190818152602001828054610889906124c1565b80156108d65780601f106108ab576101008083540402835291602001916108d6565b820191906000526020600020905b8154815290600101906020018083116108b957829003601f168201915b5050505050905090565b60006108f46108ed6111f0565b84846111f8565b6001905092915050565b6000600354905090565b60006109158484846113c3565b6000600260008673ffffffffffffffffffffffffffffffffffffffff1673ffffffffffffffffffffffffffffffffffffffff16815260200190815260200160002060006109606111f0565b73ffffffffffffffffffffffffffffffffffffffff1673ffffffffffffffffffffffffffffffffffffffff168152602001908152602001600020549050828110156109e0576040517f08c379a00000000000000000000000000000000000000000000000000000000081526004016109d790612137565b60405180910390fd5b6109f4856109ec6111f0565b8584036111f8565b60019150509392505050565b60006012905090565b60007f0000000000000000000000000000000000000000000000000000000000000000905090565b6000610ad3610a3e6111f0565b848460026000610a4c6111f0565b73ffffffffffffffffffffffffffffffffffffffff1673ffffffffffffffffffffffffffffffffffffffff16815260200190815260200160002060008873ffffffffffffffffffffffffffffffffffffffff1673ffffffffffffffffffffffffffffffffffffffff16815260200190815260200160002054610ace9190612308565b6111f8565b6001905092915050565b6000600160008373ffffffffffffffffffffffffffffffffffffffff1673ffffffffffffffffffffffffffffffffffffffff168152602001908152602001600020549050919050565b610b2e6111f0565b73ffffffffffffffffffffffffffffffffffffffff16610b4c610bae565b73ffffffffffffffffffffffffffffffffffffffff1614610ba2576040517f08c379a0000000000000000000000000000000000000000000000000000000008152600401610b9990612157565b60405180910390fd5b610bac6000611647565b565b60008060009054906101000a900473ffffffffffffffffffffffffffffffffffffffff16905090565b606060058054610be6906124c1565b80601f0160208091040260200160405190810160405280929190818152602001828054610c12906124c1565b8015610c5f5780601f10610c3457610100808354040283529160200191610c5f565b820191906000526020600020905b815481529060010190602001808311610c4257829003601f168201915b5050505050905090565b6000806000600654610c7a30610add565b610c849190612308565b9050600960008561ffff1661ffff168152602001908152602001600020546106a482610cb0919061235e565b610cba91906123d1565b91506907baab4146b63dd00000600860008661ffff1661ffff168152602001908152602001600020541015610e1f57600062015180600760008761ffff1661ffff16815260200190815260200160002060009054906101000a900467ffffffffffffffff1667ffffffffffffffff1642610d3491906123d1565b610d3e919061235e565b90506201518042610d4f919061235e565b8167ffffffffffffffff161415610d7057678ac7230489e800009350610dfc565b678ac7230489e8000081610d84919061238f565b67ffffffffffffffff1693506907baab4146b63dd00000600860008761ffff1661ffff1681526020019081526020016000205485610dc29190612308565b10610dfb57600860008661ffff1661ffff168152602001908152602001600020546907baab4146b63dd00000610df891906123d1565b93505b5b670de0b6b3a764000083610e1091906124f3565b83610e1b91906123d1565b9250505b50915091565b60008060026000610e346111f0565b73ffffffffffffffffffffffffffffffffffffffff1673ffffffffffffffffffffffffffffffffffffffff16815260200190815260200160002060008573ffffffffffffffffffffffffffffffffffffffff1673ffffffffffffffffffffffffffffffffffffffff16815260200190815260200160002054905082811015610ef1576040517f08c379a0000000000000000000000000000000000000000000000000000000008152600401610ee890612217565b60405180910390fd5b610f05610efc6111f0565b858584036111f8565b600191505092915050565b6000610f24610f1d6111f0565b84846113c3565b6001905092915050565b6000600260008473ffffffffffffffffffffffffffffffffffffffff1673ffffffffffffffffffffffffffffffffffffffff16815260200190815260200160002060008373ffffffffffffffffffffffffffffffffffffffff1673ffffffffffffffffffffffffffffffffffffffff16815260200190815260200160002054905092915050565b610fbd6111f0565b73ffffffffffffffffffffffffffffffffffffffff16610fdb610bae565b73ffffffffffffffffffffffffffffffffffffffff1614611031576040517f08c379a000000000000000000000000000000000000000000000000000000000815260040161102890612157565b60405180910390fd5b600073ffffffffffffffffffffffffffffffffffffffff168173ffffffffffffffffffffffffffffffffffffffff1614156110a1576040517f08c379a000000000000000000000000000000000000000000000000000000000815260040161109890612097565b60405180910390fd5b6110aa81611647565b50565b6110b56111f0565b73ffffffffffffffffffffffffffffffffffffffff166110d3610bae565b73ffffffffffffffffffffffffffffffffffffffff1614611129576040517f08c379a000000000000000000000000000000000000000000000000000000000815260040161112090612157565b60405180910390fd5b80600a60006101000a81548173ffffffffffffffffffffffffffffffffffffffff021916908373ffffffffffffffffffffffffffffffffffffffff16021790555050565b611177838361170b565b81600860008361ffff1661ffff16815260200190815260200160002060008282546111a29190612308565b9250508190555042600760008361ffff1661ffff16815260200190815260200160002060006101000a81548167ffffffffffffffff021916908367ffffffffffffffff160217905550505050565b600033905090565b600073ffffffffffffffffffffffffffffffffffffffff168373ffffffffffffffffffffffffffffffffffffffff161415611268576040517f08c379a000000000000000000000000000000000000000000000000000000000815260040161125f906121f7565b60405180910390fd5b600073ffffffffffffffffffffffffffffffffffffffff168273ffffffffffffffffffffffffffffffffffffffff1614156112d8576040517f08c379a00000000000000000000000000000000000000000000000000000000081526004016112cf906120b7565b60405180910390fd5b80600260008573ffffffffffffffffffffffffffffffffffffffff1673ffffffffffffffffffffffffffffffffffffffff16815260200190815260200160002060008473ffffffffffffffffffffffffffffffffffffffff1673ffffffffffffffffffffffffffffffffffffffff168152602001908152602001600020819055508173ffffffffffffffffffffffffffffffffffffffff168373ffffffffffffffffffffffffffffffffffffffff167f8c5be1e5ebec7d5bd14f71427d1e84f3dd0314c0f7b2291e5b200ac8c7c3b925836040516113b69190612272565b60405180910390a3505050565b600073ffffffffffffffffffffffffffffffffffffffff168373ffffffffffffffffffffffffffffffffffffffff161415611433576040517f08c379a000000000000000000000000000000000000000000000000000000000815260040161142a90612177565b60405180910390fd5b600073ffffffffffffffffffffffffffffffffffffffff168273ffffffffffffffffffffffffffffffffffffffff1614156114a3576040517f08c379a000000000000000000000000000000000000000000000000000000000815260040161149a90612077565b60405180910390fd5b6114ae838383611775565b6000600160008573ffffffffffffffffffffffffffffffffffffffff1673ffffffffffffffffffffffffffffffffffffffff16815260200190815260200160002054905081811015611535576040517f08c379a000000000000000000000000000000000000000000000000000000000815260040161152c906120d7565b60405180910390fd5b818103600160008673ffffffffffffffffffffffffffffffffffffffff1673ffffffffffffffffffffffffffffffffffffffff1681526020019081526020016000208190555081600160008573ffffffffffffffffffffffffffffffffffffffff1673ffffffffffffffffffffffffffffffffffffffff16815260200190815260200160002060008282546115ca9190612308565b925050819055508273ffffffffffffffffffffffffffffffffffffffff168473ffffffffffffffffffffffffffffffffffffffff167fddf252ad1be2c89b69c2b068fc378daa952ba7f163c4a11628f55a4df523b3ef8460405161162e9190612272565b60405180910390a361164184848461177a565b50505050565b60008060009054906101000a900473ffffffffffffffffffffffffffffffffffffffff169050816000806101000a81548173ffffffffffffffffffffffffffffffffffffffff021916908373ffffffffffffffffffffffffffffffffffffffff1602179055508173ffffffffffffffffffffffffffffffffffffffff168173ffffffffffffffffffffffffffffffffffffffff167f8be0079c531659141344cd1fd0a4f28419497f9722a3daafe3b4186f6b6457e060405160405180910390a35050565b611713610a09565b8161171c6108fe565b6117269190612308565b1115611767576040517f08c379a000000000000000000000000000000000000000000000000000000000815260040161175e90612197565b60405180910390fd5b611771828261177f565b5050565b505050565b505050565b600073ffffffffffffffffffffffffffffffffffffffff168273ffffffffffffffffffffffffffffffffffffffff1614156117ef576040517f08c379a00000000000000000000000000000000000000000000000000000000081526004016117e690612237565b60405180910390fd5b6117fb60008383611775565b806003600082825461180d9190612308565b9250508190555080600160008473ffffffffffffffffffffffffffffffffffffffff1673ffffffffffffffffffffffffffffffffffffffff16815260200190815260200160002060008282546118639190612308565b925050819055508173ffffffffffffffffffffffffffffffffffffffff16600073ffffffffffffffffffffffffffffffffffffffff167fddf252ad1be2c89b69c2b068fc378daa952ba7f163c4a11628f55a4df523b3ef836040516118c89190612272565b60405180910390a36118dc6000838361177a565b5050565b6000813590506118ef816125c2565b92915050565b600081519050611904816125c2565b92915050565b600081359050611919816125d9565b92915050565b60008135905061192e816125f0565b92915050565b60006020828403121561194657600080fd5b6000611954848285016118e0565b91505092915050565b60006020828403121561196f57600080fd5b600061197d848285016118f5565b91505092915050565b6000806040838503121561199957600080fd5b60006119a7858286016118e0565b92505060206119b8858286016118e0565b9150509250929050565b6000806000606084860312156119d757600080fd5b60006119e5868287016118e0565b93505060206119f6868287016118e0565b9250506040611a078682870161191f565b9150509250925092565b60008060408385031215611a2457600080fd5b6000611a32858286016118e0565b9250506020611a438582860161191f565b9150509250929050565b600060208284031215611a5f57600080fd5b6000611a6d8482850161190a565b91505092915050565b611a7f81612405565b82525050565b611a8e81612417565b82525050565b6000611a9f826122ec565b611aa981856122f7565b9350611ab981856020860161248e565b611ac2816125b1565b840191505092915050565b6000611ada6023836122f7565b91507f45524332303a207472616e7366657220746f20746865207a65726f206164647260008301527f65737300000000000000000000000000000000000000000000000000000000006020830152604082019050919050565b6000611b406026836122f7565b91507f4f776e61626c653a206e6577206f776e657220697320746865207a65726f206160008301527f64647265737300000000000000000000000000000000000000000000000000006020830152604082019050919050565b6000611ba66022836122f7565b91507f45524332303a20617070726f766520746f20746865207a65726f20616464726560008301527f73730000000000000000000000000000000000000000000000000000000000006020830152604082019050919050565b6000611c0c6026836122f7565b91507f45524332303a207472616e7366657220616d6f756e742065786365656473206260008301527f616c616e636500000000000000000000000000000000000000000000000000006020830152604082019050919050565b6000611c72601c836122f7565b91507f4e6f20746f6b656e73206176616c69626c6520746f20636c61696d21000000006000830152602082019050919050565b6000611cb2601b836122f7565b91507f5468657265206973206e6f7468696e6720746f2072656c6561736500000000006000830152602082019050919050565b6000611cf26028836122f7565b91507f45524332303a207472616e7366657220616d6f756e742065786365656473206160008301527f6c6c6f77616e63650000000000000000000000000000000000000000000000006020830152604082019050919050565b6000611d586020836122f7565b91507f4f776e61626c653a2063616c6c6572206973206e6f7420746865206f776e65726000830152602082019050919050565b6000611d986025836122f7565b91507f45524332303a207472616e736665722066726f6d20746865207a65726f20616460008301527f64726573730000000000000000000000000000000000000000000000000000006020830152604082019050919050565b6000611dfe6019836122f7565b91507f45524332304361707065643a20636170206578636565646564000000000000006000830152602082019050919050565b6000611e3e601a836122f7565b91507f5061796d656e74206469646e277420676f207468726f756768210000000000006000830152602082019050919050565b6000611e7e6031836122f7565b91507f4f6e6c7920746865206f776e6572206f662074686520776f6c662063616e206360008301527f616c6c20746869732066756e6374696f6e0000000000000000000000000000006020830152604082019050919050565b6000611ee46024836122f7565b91507f45524332303a20617070726f76652066726f6d20746865207a65726f2061646460008301527f72657373000000000000000000000000000000000000000000000000000000006020830152604082019050919050565b6000611f4a6025836122f7565b91507f45524332303a2064656372656173656420616c6c6f77616e63652062656c6f7760008301527f207a65726f0000000000000000000000000000000000000000000000000000006020830152604082019050919050565b6000611fb0601f836122f7565b91507f45524332303a206d696e7420746f20746865207a65726f2061646472657373006000830152602082019050919050565b611fec8161247c565b82525050565b611ffb81612451565b82525050565b61200a8161245b565b82525050565b6120198161246f565b82525050565b60006020820190506120346000830184611a76565b92915050565b600060208201905061204f6000830184611a85565b92915050565b6000602082019050818103600083015261206f8184611a94565b905092915050565b6000602082019050818103600083015261209081611acd565b9050919050565b600060208201905081810360008301526120b081611b33565b9050919050565b600060208201905081810360008301526120d081611b99565b9050919050565b600060208201905081810360008301526120f081611bff565b9050919050565b6000602082019050818103600083015261211081611c65565b9050919050565b6000602082019050818103600083015261213081611ca5565b9050919050565b6000602082019050818103600083015261215081611ce5565b9050919050565b6000602082019050818103600083015261217081611d4b565b9050919050565b6000602082019050818103600083015261219081611d8b565b9050919050565b600060208201905081810360008301526121b081611df1565b9050919050565b600060208201905081810360008301526121d081611e31565b9050919050565b600060208201905081810360008301526121f081611e71565b9050919050565b6000602082019050818103600083015261221081611ed7565b9050919050565b6000602082019050818103600083015261223081611f3d565b9050919050565b6000602082019050818103600083015261225081611fa3565b9050919050565b600060208201905061226c6000830184611fe3565b92915050565b60006020820190506122876000830184611ff2565b92915050565b60006040820190506122a26000830185611ff2565b6122af6020830184611ff2565b9392505050565b60006020820190506122cb6000830184612001565b92915050565b60006020820190506122e66000830184612010565b92915050565b600081519050919050565b600082825260208201905092915050565b600061231382612451565b915061231e83612451565b9250827fffffffffffffffffffffffffffffffffffffffffffffffffffffffffffffffff0382111561235357612352612524565b5b828201905092915050565b600061236982612451565b915061237483612451565b92508261238457612383612553565b5b828204905092915050565b600061239a8261245b565b91506123a58361245b565b92508167ffffffffffffffff04831182151516156123c6576123c5612524565b5b828202905092915050565b60006123dc82612451565b91506123e783612451565b9250828210156123fa576123f9612524565b5b828203905092915050565b600061241082612431565b9050919050565b60008115159050919050565b600061ffff82169050919050565b600073ffffffffffffffffffffffffffffffffffffffff82169050919050565b6000819050919050565b600067ffffffffffffffff82169050919050565b600060ff82169050919050565b600061248782612423565b9050919050565b60005b838110156124ac578082015181840152602081019050612491565b838111156124bb576000848401525b50505050565b600060028204905060018216806124d957607f821691505b602082108114156124ed576124ec612582565b5b50919050565b60006124fe82612451565b915061250983612451565b92508261251957612518612553565b5b828206905092915050565b7f4e487b7100000000000000000000000000000000000000000000000000000000600052601160045260246000fd5b7f4e487b7100000000000000000000000000000000000000000000000000000000600052601260045260246000fd5b7f4e487b7100000000000000000000000000000000000000000000000000000000600052602260045260246000fd5b6000601f19601f8301169050919050565b6125cb81612405565b81146125d657600080fd5b50565b6125e281612423565b81146125ed57600080fd5b50565b6125f981612451565b811461260457600080fd5b5056fea264697066735822122051d9775c5387df905f1991a0e33cc165ef23b915a485e2b0ffc2d0d4e4236c5a64736f6c63430008000033",
  "immutableReferences": {
    "1263": [
      {
        "length": 32,
        "start": 2573
      }
    ]
  },
  "source": "// SPDX-License-Identifier: MIT\r\n\r\npragma solidity ^0.8.0;\r\n\r\nimport \"./ERC20Capped.sol\";\r\nimport \"./IWolfPack.sol\";\r\nimport \"./Ownable.sol\";\r\n\r\ncontract DenToken is Ownable, ERC20Capped {\r\n\r\n    // total den tokens released (that were deposited to this contract)\r\n    uint private _totalReleased;\r\n\r\n    // wolf Id => last claim timestamp\r\n    mapping(uint16 => uint64) private _lastClaimTimestamp; // seconds in 24 hours: 86400\r\n\r\n    // wolf Id => amount minted per wolf\r\n    mapping(uint16 => uint) private mintedPerWolf;\r\n\r\n    // wolf ID => released amount\r\n    mapping(uint16 => uint) private _released;\r\n    \r\n    // implementing the Wolf Pack genesis tokens contract:\r\n    IWolfPack wolfPackContract;\r\n\r\n    constructor() ERC20(\"Den Token\", \"DEN\") ERC20Capped(62_050_000e18) { }\r\n\r\n    /**\r\n     * @dev sets the Wolf Pack contract address (genesis wolfs)\r\n     */\r\n    function setWolfPackContractAddress(address _contractAddress) public onlyOwner {\r\n        wolfPackContract = IWolfPack(_contractAddress);\r\n    }\r\n\r\n    /**\r\n     * @dev getter function to get the last claim timestamp for a specific wolf ID\r\n     */\r\n    function getLastClaimTimestampForWolf(uint16 wolfId) external view returns(uint64) {\r\n        return _lastClaimTimestamp[wolfId];\r\n    }\r\n\r\n    function claimDen(uint16 wolfId) external {\r\n        address wolfOwner = wolfPackContract.ownerOf(wolfId);\r\n        require(wolfOwner == msg.sender, \"Only the owner of the wolf can call this function\");\r\n\r\n        (uint amountToClaim, uint denAvalibleToRelease) = availableDenForWolf(wolfId);\r\n\r\n        if (mintedPerWolf[wolfId] < 36_500e18) { // 36500 den  // if there are tokens avalible to mint for that specific wolf so:\r\n            require(amountToClaim != 0, \"No tokens avalible to claim!\");\r\n            if (denAvalibleToRelease >= amountToClaim) { // if there are more tokens to release than the amount to claim so release the amount to claim\r\n                _released[wolfId] += amountToClaim;\r\n                _totalReleased += amountToClaim;\r\n                bool success = transferFrom(address(this), wolfOwner, amountToClaim);\r\n                require(success, \"Payment didn't go through!\");\r\n            } else { // if the there are less tokens to release than the amount to claim:\r\n                if (denAvalibleToRelease >= 10e18) { // if there are 10 or more tokens avalible to release:\r\n                    // (amount to release) = (amount of 10 den avalible to release)\r\n                    uint denAmountToRelease = (denAvalibleToRelease - (denAvalibleToRelease % 10e18));\r\n                    // (amount to mint) = (amount to claim) - (amount of 10 den avalible to release)\r\n                    uint amountToMint = amountToClaim - denAmountToRelease;\r\n                    /**\r\n                     * this is calculated like this to prevent complications with minting less than 10 den tokens at a time\r\n                     */\r\n\r\n                    _mintDen(wolfOwner, amountToMint, wolfId); // mint the amount tokens required to mint\r\n                    _released[wolfId] += denAmountToRelease;\r\n                    _totalReleased += denAmountToRelease;\r\n                    bool success = transferFrom(address(this), wolfOwner, denAmountToRelease);\r\n                    \r\n                    require(success, \"Payment didn't go through!\");\r\n                } else { // if there are no 10 den tokens avalible to release so mint them\r\n                    _mintDen(wolfOwner, amountToClaim, wolfId);\r\n                }\r\n            }\r\n        } else { // if all the tokens that can be minted for a wolf were minted so release the avalible tokens to release for that wolf\r\n            require(denAvalibleToRelease != 0, \"There is nothing to release\");\r\n            _released[wolfId] += denAvalibleToRelease;\r\n            _totalReleased += denAvalibleToRelease;\r\n            bool success = transferFrom(address(this), wolfOwner, denAvalibleToRelease);\r\n            require(success, \"Payment didn't go through!\");\r\n        }\r\n    }\r\n\r\n    function availableDenForWolf(uint16 _wolfId) public view returns(uint amountToClaim, uint denAvalibleToRelease) {\r\n        uint totalReceived = balanceOf(address(this)) + _totalReleased;\r\n        denAvalibleToRelease = (totalReceived / 1700) - _released[_wolfId];\r\n\r\n        if (mintedPerWolf[_wolfId] < 36_500e18) { // 36500 den  // if there are tokens avalible to mint for that specific wolf so:\r\n            uint64 numberOfDays = uint64((block.timestamp - _lastClaimTimestamp[_wolfId]) / 1 days); // *change to minutes for testing\r\n            if (numberOfDays == block.timestamp / (1 days)) { // checks if nothing was claimed yet\r\n                amountToClaim = 10e18; // 10 den\r\n            } else {\r\n                amountToClaim = numberOfDays * 10e18; // 10 den * days\r\n                if (amountToClaim + mintedPerWolf[_wolfId] >= 36_500e18) { // if amountToClaim exeeds the amount a wolf can generate so it returns the correct amount\r\n                    amountToClaim = 36_500e18 - mintedPerWolf[_wolfId];\r\n                }\r\n            }\r\n            \r\n            // gets the amount of full den tokens that can be released from the contract balance to that specific wolf \\/\\/\\/\r\n            denAvalibleToRelease = (denAvalibleToRelease - (denAvalibleToRelease % 1e18)); // full den tokens\r\n        } // if there are no tokens to mint, so the amount of den that can be released to that specific wolf will be return what is calculated on the top\r\n    }\r\n\r\n    function _mintDen(address _address, uint _amount, uint16 _wolfId) private {\r\n        _mint(_address, _amount);\r\n        mintedPerWolf[_wolfId] += _amount;\r\n        _lastClaimTimestamp[_wolfId] = uint64(block.timestamp);\r\n    }\r\n\r\n}",
  "sourcePath": "D:\\TheWolfPack\\DenToken\\contracts\\DenToken.sol",
  "compiler": {
    "name": "solc",
    "version": "0.8.0+commit.c7dfd78e.Emscripten.clang"
  },
  "schemaVersion": "3.4.3",
  "updatedAt": "2021-11-06T15:58:22.559Z",
  "devdoc": {
    "kind": "dev",
    "methods": {
      "allowance(address,address)": {
        "details": "See {IERC20-allowance}."
      },
      "approve(address,uint256)": {
        "details": "See {IERC20-approve}. Requirements: - `spender` cannot be the zero address."
      },
      "balanceOf(address)": {
        "details": "See {IERC20-balanceOf}."
      },
      "cap()": {
        "details": "Returns the cap on the token's total supply."
      },
      "decimals()": {
        "details": "Returns the number of decimals used to get its user representation. For example, if `decimals` equals `2`, a balance of `505` tokens should be displayed to a user as `5.05` (`505 / 10 ** 2`). Tokens usually opt for a value of 18, imitating the relationship between Ether and Wei. This is the value {ERC20} uses, unless this function is overridden; NOTE: This information is only used for _display_ purposes: it in no way affects any of the arithmetic of the contract, including {IERC20-balanceOf} and {IERC20-transfer}."
      },
      "decreaseAllowance(address,uint256)": {
        "details": "Atomically decreases the allowance granted to `spender` by the caller. This is an alternative to {approve} that can be used as a mitigation for problems described in {IERC20-approve}. Emits an {Approval} event indicating the updated allowance. Requirements: - `spender` cannot be the zero address. - `spender` must have allowance for the caller of at least `subtractedValue`."
      },
      "getLastClaimTimestampForWolf(uint16)": {
        "details": "getter function to get the last claim timestamp for a specific wolf ID"
      },
      "increaseAllowance(address,uint256)": {
        "details": "Atomically increases the allowance granted to `spender` by the caller. This is an alternative to {approve} that can be used as a mitigation for problems described in {IERC20-approve}. Emits an {Approval} event indicating the updated allowance. Requirements: - `spender` cannot be the zero address."
      },
      "name()": {
        "details": "Returns the name of the token."
      },
      "owner()": {
        "details": "Returns the address of the current owner."
      },
      "renounceOwnership()": {
        "details": "Leaves the contract without owner. It will not be possible to call `onlyOwner` functions anymore. Can only be called by the current owner. NOTE: Renouncing ownership will leave the contract without an owner, thereby removing any functionality that is only available to the owner."
      },
      "setWolfPackContractAddress(address)": {
        "details": "sets the Wolf Pack contract address (genesis wolfs)"
      },
      "symbol()": {
        "details": "Returns the symbol of the token, usually a shorter version of the name."
      },
      "totalSupply()": {
        "details": "See {IERC20-totalSupply}."
      },
      "transfer(address,uint256)": {
        "details": "See {IERC20-transfer}. Requirements: - `recipient` cannot be the zero address. - the caller must have a balance of at least `amount`."
      },
      "transferFrom(address,address,uint256)": {
        "details": "See {IERC20-transferFrom}. Emits an {Approval} event indicating the updated allowance. This is not required by the EIP. See the note at the beginning of {ERC20}. Requirements: - `sender` and `recipient` cannot be the zero address. - `sender` must have a balance of at least `amount`. - the caller must have allowance for ``sender``'s tokens of at least `amount`."
      },
      "transferOwnership(address)": {
        "details": "Transfers ownership of the contract to a new account (`newOwner`). Can only be called by the current owner."
      }
    },
    "version": 1
  },
  "userdoc": {
    "kind": "user",
    "methods": {},
    "version": 1
  }
}