{
  "contractName": "DenToken",
  "abi": [
    {
      "inputs": [],
      "stateMutability": "nonpayable",
      "type": "constructor"
    },
    {
      "anonymous": false,
      "inputs": [
        {
          "indexed": true,
          "internalType": "address",
          "name": "owner",
          "type": "address"
        },
        {
          "indexed": true,
          "internalType": "address",
          "name": "spender",
          "type": "address"
        },
        {
          "indexed": false,
          "internalType": "uint256",
          "name": "value",
          "type": "uint256"
        }
      ],
      "name": "Approval",
      "type": "event"
    },
    {
      "anonymous": false,
      "inputs": [
        {
          "indexed": true,
          "internalType": "address",
          "name": "previousOwner",
          "type": "address"
        },
        {
          "indexed": true,
          "internalType": "address",
          "name": "newOwner",
          "type": "address"
        }
      ],
      "name": "OwnershipTransferred",
      "type": "event"
    },
    {
      "anonymous": false,
      "inputs": [
        {
          "indexed": true,
          "internalType": "address",
          "name": "from",
          "type": "address"
        },
        {
          "indexed": true,
          "internalType": "address",
          "name": "to",
          "type": "address"
        },
        {
          "indexed": false,
          "internalType": "uint256",
          "name": "value",
          "type": "uint256"
        }
      ],
      "name": "Transfer",
      "type": "event"
    },
    {
      "inputs": [
        {
          "internalType": "address",
          "name": "owner",
          "type": "address"
        },
        {
          "internalType": "address",
          "name": "spender",
          "type": "address"
        }
      ],
      "name": "allowance",
      "outputs": [
        {
          "internalType": "uint256",
          "name": "",
          "type": "uint256"
        }
      ],
      "stateMutability": "view",
      "type": "function",
      "constant": true
    },
    {
      "inputs": [
        {
          "internalType": "address",
          "name": "spender",
          "type": "address"
        },
        {
          "internalType": "uint256",
          "name": "amount",
          "type": "uint256"
        }
      ],
      "name": "approve",
      "outputs": [
        {
          "internalType": "bool",
          "name": "",
          "type": "bool"
        }
      ],
      "stateMutability": "nonpayable",
      "type": "function"
    },
    {
      "inputs": [
        {
          "internalType": "address",
          "name": "account",
          "type": "address"
        }
      ],
      "name": "balanceOf",
      "outputs": [
        {
          "internalType": "uint256",
          "name": "",
          "type": "uint256"
        }
      ],
      "stateMutability": "view",
      "type": "function",
      "constant": true
    },
    {
      "inputs": [],
      "name": "cap",
      "outputs": [
        {
          "internalType": "uint256",
          "name": "",
          "type": "uint256"
        }
      ],
      "stateMutability": "view",
      "type": "function",
      "constant": true
    },
    {
      "inputs": [],
      "name": "decimals",
      "outputs": [
        {
          "internalType": "uint8",
          "name": "",
          "type": "uint8"
        }
      ],
      "stateMutability": "view",
      "type": "function",
      "constant": true
    },
    {
      "inputs": [
        {
          "internalType": "address",
          "name": "spender",
          "type": "address"
        },
        {
          "internalType": "uint256",
          "name": "subtractedValue",
          "type": "uint256"
        }
      ],
      "name": "decreaseAllowance",
      "outputs": [
        {
          "internalType": "bool",
          "name": "",
          "type": "bool"
        }
      ],
      "stateMutability": "nonpayable",
      "type": "function"
    },
    {
      "inputs": [
        {
          "internalType": "address",
          "name": "spender",
          "type": "address"
        },
        {
          "internalType": "uint256",
          "name": "addedValue",
          "type": "uint256"
        }
      ],
      "name": "increaseAllowance",
      "outputs": [
        {
          "internalType": "bool",
          "name": "",
          "type": "bool"
        }
      ],
      "stateMutability": "nonpayable",
      "type": "function"
    },
    {
      "inputs": [],
      "name": "name",
      "outputs": [
        {
          "internalType": "string",
          "name": "",
          "type": "string"
        }
      ],
      "stateMutability": "view",
      "type": "function",
      "constant": true
    },
    {
      "inputs": [],
      "name": "owner",
      "outputs": [
        {
          "internalType": "address",
          "name": "",
          "type": "address"
        }
      ],
      "stateMutability": "view",
      "type": "function",
      "constant": true
    },
    {
      "inputs": [],
      "name": "renounceOwnership",
      "outputs": [],
      "stateMutability": "nonpayable",
      "type": "function"
    },
    {
      "inputs": [],
      "name": "symbol",
      "outputs": [
        {
          "internalType": "string",
          "name": "",
          "type": "string"
        }
      ],
      "stateMutability": "view",
      "type": "function",
      "constant": true
    },
    {
      "inputs": [],
      "name": "totalSupply",
      "outputs": [
        {
          "internalType": "uint256",
          "name": "",
          "type": "uint256"
        }
      ],
      "stateMutability": "view",
      "type": "function",
      "constant": true
    },
    {
      "inputs": [
        {
          "internalType": "address",
          "name": "recipient",
          "type": "address"
        },
        {
          "internalType": "uint256",
          "name": "amount",
          "type": "uint256"
        }
      ],
      "name": "transfer",
      "outputs": [
        {
          "internalType": "bool",
          "name": "",
          "type": "bool"
        }
      ],
      "stateMutability": "nonpayable",
      "type": "function"
    },
    {
      "inputs": [
        {
          "internalType": "address",
          "name": "sender",
          "type": "address"
        },
        {
          "internalType": "address",
          "name": "recipient",
          "type": "address"
        },
        {
          "internalType": "uint256",
          "name": "amount",
          "type": "uint256"
        }
      ],
      "name": "transferFrom",
      "outputs": [
        {
          "internalType": "bool",
          "name": "",
          "type": "bool"
        }
      ],
      "stateMutability": "nonpayable",
      "type": "function"
    },
    {
      "inputs": [
        {
          "internalType": "address",
          "name": "newOwner",
          "type": "address"
        }
      ],
      "name": "transferOwnership",
      "outputs": [],
      "stateMutability": "nonpayable",
      "type": "function"
    },
    {
      "inputs": [
        {
          "internalType": "address",
          "name": "_contractAddress",
          "type": "address"
        }
      ],
      "name": "setWolfPackContractAddress",
      "outputs": [],
      "stateMutability": "nonpayable",
      "type": "function"
    },
    {
      "inputs": [
        {
          "internalType": "uint256",
          "name": "wolfId",
          "type": "uint256"
        }
      ],
      "name": "getLastClaimTimestampForWolf",
      "outputs": [
        {
          "internalType": "uint64",
          "name": "",
          "type": "uint64"
        }
      ],
      "stateMutability": "view",
      "type": "function",
      "constant": true
    },
    {
      "inputs": [
        {
          "internalType": "uint256",
          "name": "wolfId",
          "type": "uint256"
        }
      ],
      "name": "claimDen",
      "outputs": [],
      "stateMutability": "nonpayable",
      "type": "function"
    },
    {
      "inputs": [
        {
          "internalType": "uint256",
          "name": "_wolfId",
          "type": "uint256"
        }
      ],
      "name": "availableDenForWolf",
      "outputs": [
        {
          "internalType": "uint16",
          "name": "amountToClaim",
          "type": "uint16"
        },
        {
          "internalType": "uint256",
          "name": "denAvalibleToRelease",
          "type": "uint256"
        }
      ],
      "stateMutability": "view",
      "type": "function",
      "constant": true
    }
  ],
  "bytecode": "0x60a06040523480156200001157600080fd5b506303b2ced06040518060400160405280600981526020017f44656e20546f6b656e00000000000000000000000000000000000000000000008152506040518060400160405280600381526020017f44454e0000000000000000000000000000000000000000000000000000000000815250620000a3620000976200012c60201b60201c565b6200013460201b60201c565b8160049080519060200190620000bb929190620001f8565b508060059080519060200190620000d4929190620001f8565b505050600081116200011d576040517f08c379a00000000000000000000000000000000000000000000000000000000081526004016200011490620002ea565b60405180910390fd5b80608081815250505062000382565b600033905090565b60008060009054906101000a900473ffffffffffffffffffffffffffffffffffffffff169050816000806101000a81548173ffffffffffffffffffffffffffffffffffffffff021916908373ffffffffffffffffffffffffffffffffffffffff1602179055508173ffffffffffffffffffffffffffffffffffffffff168173ffffffffffffffffffffffffffffffffffffffff167f8be0079c531659141344cd1fd0a4f28419497f9722a3daafe3b4186f6b6457e060405160405180910390a35050565b82805462000206906200031d565b90600052602060002090601f0160209004810192826200022a576000855562000276565b82601f106200024557805160ff191683800117855562000276565b8280016001018555821562000276579182015b828111156200027557825182559160200191906001019062000258565b5b50905062000285919062000289565b5090565b5b80821115620002a45760008160009055506001016200028a565b5090565b6000620002b76015836200030c565b91507f45524332304361707065643a20636170206973203000000000000000000000006000830152602082019050919050565b600060208201905081810360008301526200030581620002a8565b9050919050565b600082825260208201905092915050565b600060028204905060018216806200033657607f821691505b602082108114156200034d576200034c62000353565b5b50919050565b7f4e487b7100000000000000000000000000000000000000000000000000000000600052602260045260246000fd5b6080516125496200039e60003960006105a801526125496000f3fe608060405234801561001057600080fd5b50600436106101215760003560e01c8063715018a6116100ad578063a9059cbb11610071578063a9059cbb14610321578063ced994ec14610351578063dd62ed3e14610381578063f2fde38b146103b1578063f8812281146103cd57610121565b8063715018a61461028f5780638da5cb5b1461029957806395d89b41146102b7578063a011f25c146102d5578063a457c2d7146102f157610121565b8063313ce567116100f4578063313ce567146101c2578063355274ea146101e057806339509351146101fe57806368ed4e401461022e57806370a082311461025f57610121565b806306fdde0314610126578063095ea7b31461014457806318160ddd1461017457806323b872dd14610192575b600080fd5b61012e6103e9565b60405161013b9190611f63565b60405180910390f35b61015e6004803603810190610159919061195f565b61047b565b60405161016b9190611f48565b60405180910390f35b61017c610499565b604051610189919061216e565b60405180910390f35b6101ac60048036038101906101a79190611910565b6104a3565b6040516101b99190611f48565b60405180910390f35b6101ca61059b565b6040516101d791906121a4565b60405180910390f35b6101e86105a4565b6040516101f5919061216e565b60405180910390f35b6102186004803603810190610213919061195f565b6105cc565b6040516102259190611f48565b60405180910390f35b6102486004803603810190610243919061199b565b610678565b604051610256929190612145565b60405180910390f35b61027960048036038101906102749190611882565b6107be565b604051610286919061216e565b60405180910390f35b610297610807565b005b6102a161088f565b6040516102ae9190611f2d565b60405180910390f35b6102bf6108b8565b6040516102cc9190611f63565b60405180910390f35b6102ef60048036038101906102ea919061199b565b61094a565b005b61030b6004803603810190610306919061195f565b610d39565b6040516103189190611f48565b60405180910390f35b61033b6004803603810190610336919061195f565b610e24565b6040516103489190611f48565b60405180910390f35b61036b6004803603810190610366919061199b565b610e42565b6040516103789190612189565b60405180910390f35b61039b600480360381019061039691906118d4565b610e73565b6040516103a8919061216e565b60405180910390f35b6103cb60048036038101906103c69190611882565b610efa565b005b6103e760048036038101906103e29190611882565b610ff2565b005b6060600480546103f8906123e4565b80601f0160208091040260200160405190810160405280929190818152602001828054610424906123e4565b80156104715780601f1061044657610100808354040283529160200191610471565b820191906000526020600020905b81548152906001019060200180831161045457829003601f168201915b5050505050905090565b600061048f6104886110b2565b84846110ba565b6001905092915050565b6000600354905090565b60006104b0848484611285565b6000600260008673ffffffffffffffffffffffffffffffffffffffff1673ffffffffffffffffffffffffffffffffffffffff16815260200190815260200160002060006104fb6110b2565b73ffffffffffffffffffffffffffffffffffffffff1673ffffffffffffffffffffffffffffffffffffffff1681526020019081526020016000205490508281101561057b576040517f08c379a000000000000000000000000000000000000000000000000000000000815260040161057290612025565b60405180910390fd5b61058f856105876110b2565b8584036110ba565b60019150509392505050565b60006012905090565b60007f0000000000000000000000000000000000000000000000000000000000000000905090565b600061066e6105d96110b2565b8484600260006105e76110b2565b73ffffffffffffffffffffffffffffffffffffffff1673ffffffffffffffffffffffffffffffffffffffff16815260200190815260200160002060008873ffffffffffffffffffffffffffffffffffffffff1673ffffffffffffffffffffffffffffffffffffffff1681526020019081526020016000205461066991906121db565b6110ba565b6001905092915050565b6000806000600654610689306107be565b61069391906121db565b9050618e946008600086815260200190815260200160002060009054906101000a900463ffffffff1663ffffffff161015610789576000620151806007600087815260200190815260200160002060009054906101000a900467ffffffffffffffff1667ffffffffffffffff164261070b91906122f6565b610715919061226b565b9050600a81610724919061229c565b9350600060096000878152602001908152602001600020546106a48461074a919061226b565b61075491906122f6565b9050670de0b6b3a7640000808261076b9190612416565b8261077691906122f6565b610780919061226b565b935050506107b8565b60096000858152602001908152602001600020546106a4826107ab919061226b565b6107b591906122f6565b91505b50915091565b6000600160008373ffffffffffffffffffffffffffffffffffffffff1673ffffffffffffffffffffffffffffffffffffffff168152602001908152602001600020549050919050565b61080f6110b2565b73ffffffffffffffffffffffffffffffffffffffff1661082d61088f565b73ffffffffffffffffffffffffffffffffffffffff1614610883576040517f08c379a000000000000000000000000000000000000000000000000000000000815260040161087a90612045565b60405180910390fd5b61088d6000611509565b565b60008060009054906101000a900473ffffffffffffffffffffffffffffffffffffffff16905090565b6060600580546108c7906123e4565b80601f01602080910402602001604051908101604052809291908181526020018280546108f3906123e4565b80156109405780601f1061091557610100808354040283529160200191610940565b820191906000526020600020905b81548152906001019060200180831161092357829003601f168201915b5050505050905090565b6000600a60009054906101000a900473ffffffffffffffffffffffffffffffffffffffff1673ffffffffffffffffffffffffffffffffffffffff16636352211e836040518263ffffffff1660e01b81526004016109a7919061216e565b60206040518083038186803b1580156109bf57600080fd5b505afa1580156109d3573d6000803e3d6000fd5b505050506040513d601f19601f820116820180604052508101906109f791906118ab565b90503373ffffffffffffffffffffffffffffffffffffffff168173ffffffffffffffffffffffffffffffffffffffff1614610a67576040517f08c379a0000000000000000000000000000000000000000000000000000000008152600401610a5e906120c5565b60405180910390fd5b600080610a7384610678565b91509150618e946008600086815260200190815260200160002060009054906101000a900463ffffffff1663ffffffff161015610c5b578161ffff168110610b59578161ffff16600960008681526020019081526020016000206000828254610adc91906121db565b925050819055508161ffff1660066000828254610af991906121db565b925050819055506000610b1130858561ffff166104a3565b905080610b53576040517f08c379a0000000000000000000000000000000000000000000000000000000008152600401610b4a906120a5565b60405180910390fd5b50610c56565b600a8110610c49576000670de0b6b3a7640000600a83610b799190612416565b83610b8491906122f6565b610b8e919061229c565b90506000818461ffff16610ba291906122f6565b9050610baf8582886115cd565b81600960008881526020019081526020016000206000828254610bd291906121db565b925050819055508160066000828254610beb91906121db565b925050819055506000610bff3087856104a3565b905080610c41576040517f08c379a0000000000000000000000000000000000000000000000000000000008152600401610c38906120a5565b60405180910390fd5b505050610c55565b610c548383866115cd565b5b5b610d33565b6000811415610c9f576040517f08c379a0000000000000000000000000000000000000000000000000000000008152600401610c9690612005565b60405180910390fd5b80600960008681526020019081526020016000206000828254610cc291906121db565b925050819055508060066000828254610cdb91906121db565b925050819055506000610cef3085846104a3565b905080610d31576040517f08c379a0000000000000000000000000000000000000000000000000000000008152600401610d28906120a5565b60405180910390fd5b505b50505050565b60008060026000610d486110b2565b73ffffffffffffffffffffffffffffffffffffffff1673ffffffffffffffffffffffffffffffffffffffff16815260200190815260200160002060008573ffffffffffffffffffffffffffffffffffffffff1673ffffffffffffffffffffffffffffffffffffffff16815260200190815260200160002054905082811015610e05576040517f08c379a0000000000000000000000000000000000000000000000000000000008152600401610dfc90612105565b60405180910390fd5b610e19610e106110b2565b858584036110ba565b600191505092915050565b6000610e38610e316110b2565b8484611285565b6001905092915050565b60006007600083815260200190815260200160002060009054906101000a900467ffffffffffffffff169050919050565b6000600260008473ffffffffffffffffffffffffffffffffffffffff1673ffffffffffffffffffffffffffffffffffffffff16815260200190815260200160002060008373ffffffffffffffffffffffffffffffffffffffff1673ffffffffffffffffffffffffffffffffffffffff16815260200190815260200160002054905092915050565b610f026110b2565b73ffffffffffffffffffffffffffffffffffffffff16610f2061088f565b73ffffffffffffffffffffffffffffffffffffffff1614610f76576040517f08c379a0000000000000000000000000000000000000000000000000000000008152600401610f6d90612045565b60405180910390fd5b600073ffffffffffffffffffffffffffffffffffffffff168173ffffffffffffffffffffffffffffffffffffffff161415610fe6576040517f08c379a0000000000000000000000000000000000000000000000000000000008152600401610fdd90611fa5565b60405180910390fd5b610fef81611509565b50565b610ffa6110b2565b73ffffffffffffffffffffffffffffffffffffffff1661101861088f565b73ffffffffffffffffffffffffffffffffffffffff161461106e576040517f08c379a000000000000000000000000000000000000000000000000000000000815260040161106590612045565b60405180910390fd5b80600a60006101000a81548173ffffffffffffffffffffffffffffffffffffffff021916908373ffffffffffffffffffffffffffffffffffffffff16021790555050565b600033905090565b600073ffffffffffffffffffffffffffffffffffffffff168373ffffffffffffffffffffffffffffffffffffffff16141561112a576040517f08c379a0000000000000000000000000000000000000000000000000000000008152600401611121906120e5565b60405180910390fd5b600073ffffffffffffffffffffffffffffffffffffffff168273ffffffffffffffffffffffffffffffffffffffff16141561119a576040517f08c379a000000000000000000000000000000000000000000000000000000000815260040161119190611fc5565b60405180910390fd5b80600260008573ffffffffffffffffffffffffffffffffffffffff1673ffffffffffffffffffffffffffffffffffffffff16815260200190815260200160002060008473ffffffffffffffffffffffffffffffffffffffff1673ffffffffffffffffffffffffffffffffffffffff168152602001908152602001600020819055508173ffffffffffffffffffffffffffffffffffffffff168373ffffffffffffffffffffffffffffffffffffffff167f8c5be1e5ebec7d5bd14f71427d1e84f3dd0314c0f7b2291e5b200ac8c7c3b92583604051611278919061216e565b60405180910390a3505050565b600073ffffffffffffffffffffffffffffffffffffffff168373ffffffffffffffffffffffffffffffffffffffff1614156112f5576040517f08c379a00000000000000000000000000000000000000000000000000000000081526004016112ec90612065565b60405180910390fd5b600073ffffffffffffffffffffffffffffffffffffffff168273ffffffffffffffffffffffffffffffffffffffff161415611365576040517f08c379a000000000000000000000000000000000000000000000000000000000815260040161135c90611f85565b60405180910390fd5b61137083838361166e565b6000600160008573ffffffffffffffffffffffffffffffffffffffff1673ffffffffffffffffffffffffffffffffffffffff168152602001908152602001600020549050818110156113f7576040517f08c379a00000000000000000000000000000000000000000000000000000000081526004016113ee90611fe5565b60405180910390fd5b818103600160008673ffffffffffffffffffffffffffffffffffffffff1673ffffffffffffffffffffffffffffffffffffffff1681526020019081526020016000208190555081600160008573ffffffffffffffffffffffffffffffffffffffff1673ffffffffffffffffffffffffffffffffffffffff168152602001908152602001600020600082825461148c91906121db565b925050819055508273ffffffffffffffffffffffffffffffffffffffff168473ffffffffffffffffffffffffffffffffffffffff167fddf252ad1be2c89b69c2b068fc378daa952ba7f163c4a11628f55a4df523b3ef846040516114f0919061216e565b60405180910390a3611503848484611673565b50505050565b60008060009054906101000a900473ffffffffffffffffffffffffffffffffffffffff169050816000806101000a81548173ffffffffffffffffffffffffffffffffffffffff021916908373ffffffffffffffffffffffffffffffffffffffff1602179055508173ffffffffffffffffffffffffffffffffffffffff168173ffffffffffffffffffffffffffffffffffffffff167f8be0079c531659141344cd1fd0a4f28419497f9722a3daafe3b4186f6b6457e060405160405180910390a35050565b6115db838361ffff16611678565b8161ffff166008600083815260200190815260200160002060008282829054906101000a900463ffffffff166116119190612231565b92506101000a81548163ffffffff021916908363ffffffff160217905550426007600083815260200190815260200160002060006101000a81548167ffffffffffffffff021916908367ffffffffffffffff160217905550505050565b505050565b505050565b6116806105a4565b81611689610499565b61169391906121db565b11156116d4576040517f08c379a00000000000000000000000000000000000000000000000000000000081526004016116cb90612085565b60405180910390fd5b6116de82826116e2565b5050565b600073ffffffffffffffffffffffffffffffffffffffff168273ffffffffffffffffffffffffffffffffffffffff161415611752576040517f08c379a000000000000000000000000000000000000000000000000000000000815260040161174990612125565b60405180910390fd5b61175e6000838361166e565b806003600082825461177091906121db565b9250508190555080600160008473ffffffffffffffffffffffffffffffffffffffff1673ffffffffffffffffffffffffffffffffffffffff16815260200190815260200160002060008282546117c691906121db565b925050819055508173ffffffffffffffffffffffffffffffffffffffff16600073ffffffffffffffffffffffffffffffffffffffff167fddf252ad1be2c89b69c2b068fc378daa952ba7f163c4a11628f55a4df523b3ef8360405161182b919061216e565b60405180910390a361183f60008383611673565b5050565b600081359050611852816124e5565b92915050565b600081519050611867816124e5565b92915050565b60008135905061187c816124fc565b92915050565b60006020828403121561189457600080fd5b60006118a284828501611843565b91505092915050565b6000602082840312156118bd57600080fd5b60006118cb84828501611858565b91505092915050565b600080604083850312156118e757600080fd5b60006118f585828601611843565b925050602061190685828601611843565b9150509250929050565b60008060006060848603121561192557600080fd5b600061193386828701611843565b935050602061194486828701611843565b92505060406119558682870161186d565b9150509250925092565b6000806040838503121561197257600080fd5b600061198085828601611843565b92505060206119918582860161186d565b9150509250929050565b6000602082840312156119ad57600080fd5b60006119bb8482850161186d565b91505092915050565b6119cd8161232a565b82525050565b6119dc8161233c565b82525050565b60006119ed826121bf565b6119f781856121ca565b9350611a078185602086016123b1565b611a10816124d4565b840191505092915050565b6000611a286023836121ca565b91507f45524332303a207472616e7366657220746f20746865207a65726f206164647260008301527f65737300000000000000000000000000000000000000000000000000000000006020830152604082019050919050565b6000611a8e6026836121ca565b91507f4f776e61626c653a206e6577206f776e657220697320746865207a65726f206160008301527f64647265737300000000000000000000000000000000000000000000000000006020830152604082019050919050565b6000611af46022836121ca565b91507f45524332303a20617070726f766520746f20746865207a65726f20616464726560008301527f73730000000000000000000000000000000000000000000000000000000000006020830152604082019050919050565b6000611b5a6026836121ca565b91507f45524332303a207472616e7366657220616d6f756e742065786365656473206260008301527f616c616e636500000000000000000000000000000000000000000000000000006020830152604082019050919050565b6000611bc0601b836121ca565b91507f5468657265206973206e6f7468696e6720746f2072656c6561736500000000006000830152602082019050919050565b6000611c006028836121ca565b91507f45524332303a207472616e7366657220616d6f756e742065786365656473206160008301527f6c6c6f77616e63650000000000000000000000000000000000000000000000006020830152604082019050919050565b6000611c666020836121ca565b91507f4f776e61626c653a2063616c6c6572206973206e6f7420746865206f776e65726000830152602082019050919050565b6000611ca66025836121ca565b91507f45524332303a207472616e736665722066726f6d20746865207a65726f20616460008301527f64726573730000000000000000000000000000000000000000000000000000006020830152604082019050919050565b6000611d0c6019836121ca565b91507f45524332304361707065643a20636170206578636565646564000000000000006000830152602082019050919050565b6000611d4c601a836121ca565b91507f5061796d656e74206469646e277420676f207468726f756768210000000000006000830152602082019050919050565b6000611d8c6031836121ca565b91507f4f6e6c7920746865206f776e6572206f662074686520776f6c662063616e206360008301527f616c6c20746869732066756e6374696f6e0000000000000000000000000000006020830152604082019050919050565b6000611df26024836121ca565b91507f45524332303a20617070726f76652066726f6d20746865207a65726f2061646460008301527f72657373000000000000000000000000000000000000000000000000000000006020830152604082019050919050565b6000611e586025836121ca565b91507f45524332303a2064656372656173656420616c6c6f77616e63652062656c6f7760008301527f207a65726f0000000000000000000000000000000000000000000000000000006020830152604082019050919050565b6000611ebe601f836121ca565b91507f45524332303a206d696e7420746f20746865207a65726f2061646472657373006000830152602082019050919050565b611efa81612348565b82525050565b611f0981612376565b82525050565b611f1881612390565b82525050565b611f27816123a4565b82525050565b6000602082019050611f4260008301846119c4565b92915050565b6000602082019050611f5d60008301846119d3565b92915050565b60006020820190508181036000830152611f7d81846119e2565b905092915050565b60006020820190508181036000830152611f9e81611a1b565b9050919050565b60006020820190508181036000830152611fbe81611a81565b9050919050565b60006020820190508181036000830152611fde81611ae7565b9050919050565b60006020820190508181036000830152611ffe81611b4d565b9050919050565b6000602082019050818103600083015261201e81611bb3565b9050919050565b6000602082019050818103600083015261203e81611bf3565b9050919050565b6000602082019050818103600083015261205e81611c59565b9050919050565b6000602082019050818103600083015261207e81611c99565b9050919050565b6000602082019050818103600083015261209e81611cff565b9050919050565b600060208201905081810360008301526120be81611d3f565b9050919050565b600060208201905081810360008301526120de81611d7f565b9050919050565b600060208201905081810360008301526120fe81611de5565b9050919050565b6000602082019050818103600083015261211e81611e4b565b9050919050565b6000602082019050818103600083015261213e81611eb1565b9050919050565b600060408201905061215a6000830185611ef1565b6121676020830184611f00565b9392505050565b60006020820190506121836000830184611f00565b92915050565b600060208201905061219e6000830184611f0f565b92915050565b60006020820190506121b96000830184611f1e565b92915050565b600081519050919050565b600082825260208201905092915050565b60006121e682612376565b91506121f183612376565b9250827fffffffffffffffffffffffffffffffffffffffffffffffffffffffffffffffff0382111561222657612225612447565b5b828201905092915050565b600061223c82612380565b915061224783612380565b92508263ffffffff038211156122605761225f612447565b5b828201905092915050565b600061227682612376565b915061228183612376565b92508261229157612290612476565b5b828204905092915050565b60006122a782612376565b91506122b283612376565b9250817fffffffffffffffffffffffffffffffffffffffffffffffffffffffffffffffff04831182151516156122eb576122ea612447565b5b828202905092915050565b600061230182612376565b915061230c83612376565b92508282101561231f5761231e612447565b5b828203905092915050565b600061233582612356565b9050919050565b60008115159050919050565b600061ffff82169050919050565b600073ffffffffffffffffffffffffffffffffffffffff82169050919050565b6000819050919050565b600063ffffffff82169050919050565b600067ffffffffffffffff82169050919050565b600060ff82169050919050565b60005b838110156123cf5780820151818401526020810190506123b4565b838111156123de576000848401525b50505050565b600060028204905060018216806123fc57607f821691505b602082108114156124105761240f6124a5565b5b50919050565b600061242182612376565b915061242c83612376565b92508261243c5761243b612476565b5b828206905092915050565b7f4e487b7100000000000000000000000000000000000000000000000000000000600052601160045260246000fd5b7f4e487b7100000000000000000000000000000000000000000000000000000000600052601260045260246000fd5b7f4e487b7100000000000000000000000000000000000000000000000000000000600052602260045260246000fd5b6000601f19601f8301169050919050565b6124ee8161232a565b81146124f957600080fd5b50565b61250581612376565b811461251057600080fd5b5056fea2646970667358221220b18cfee6666c763010b442282cd2bc80a9204e4e1146f76ed8bcfd954accd69c64736f6c63430008000033",
  "immutableReferences": {
    "1246": [
      {
        "length": 32,
        "start": 1448
      }
    ]
  },
  "source": "// SPDX-License-Identifier: MIT\r\n\r\npragma solidity ^0.8.0;\r\n\r\nimport \"./ERC20Capped.sol\";\r\nimport \"./IWolfPack.sol\";\r\nimport \"./Ownable.sol\";\r\n\r\ncontract DenToken is Ownable, ERC20Capped {\r\n\r\n    // total den tokens released (that were deposited to this contract)\r\n    uint256 private _totalReleased;\r\n\r\n    // wolf Id => last claim timestamp\r\n    mapping(uint => uint64) private _lastClaimTimestamp; // seconds in 24 hours: 86400\r\n\r\n    // wolf Id => amount minted per wolf\r\n    mapping(uint => uint32) private mintedPerWolf;\r\n\r\n    // wolf ID => released amount\r\n    mapping(uint => uint) private _released;\r\n    \r\n    // implementing the Wolf Pack genesis tokens contract:\r\n    IWolfPack wolfPackContract;\r\n\r\n    constructor() ERC20(\"Den Token\", \"DEN\") ERC20Capped(62050000) { }\r\n\r\n    /**\r\n     * @dev sets the Wolf Pack contract address (genesis wolfs)\r\n     */\r\n    function setWolfPackContractAddress(address _contractAddress) public onlyOwner {\r\n        wolfPackContract = IWolfPack(_contractAddress);\r\n    }\r\n\r\n    /**\r\n     * @dev getter function to get the last claim timestamp for a specific wolf ID\r\n     */\r\n    function getLastClaimTimestampForWolf(uint wolfId) external view returns(uint64) {\r\n        return _lastClaimTimestamp[wolfId];\r\n    }\r\n\r\n    function claimDen(uint wolfId) external {\r\n        address wolfOwner = wolfPackContract.ownerOf(wolfId);\r\n        require(wolfOwner == msg.sender, \"Only the owner of the wolf can call this function\");\r\n\r\n        (uint16 amountToClaim, uint denAvalibleToRelease) = availableDenForWolf(wolfId);\r\n\r\n        if (mintedPerWolf[wolfId] < 36500) {\r\n            if (denAvalibleToRelease >= amountToClaim) {\r\n                _released[wolfId] += amountToClaim;\r\n                _totalReleased += amountToClaim;\r\n                bool success = transferFrom(address(this), wolfOwner, amountToClaim);\r\n                require(success, \"Payment didn't go through!\");\r\n            } else {\r\n                if (denAvalibleToRelease >= 10) {\r\n                    // (amount to release) = (amount of 10 den avalible to release)\r\n                    uint denAmountToRelease = (denAvalibleToRelease - (denAvalibleToRelease % 10)) * 1000000000000000000;\r\n                    // (amount to claim) - (amount of 10 den avalible to release) = (amount to mint)\r\n                    uint16 amountToMint = uint16(amountToClaim - denAmountToRelease);\r\n\r\n                    _mintDen(wolfOwner, amountToMint, wolfId);\r\n                    _released[wolfId] += denAmountToRelease;\r\n                    _totalReleased += denAmountToRelease;\r\n                    bool success = transferFrom(address(this), wolfOwner, denAmountToRelease);\r\n                    require(success, \"Payment didn't go through!\");\r\n                } else {\r\n                    _mintDen(wolfOwner, amountToClaim, wolfId);\r\n                }\r\n            }\r\n        } else {\r\n            require(denAvalibleToRelease != 0, \"There is nothing to release\");\r\n            _released[wolfId] += denAvalibleToRelease;\r\n            _totalReleased += denAvalibleToRelease;\r\n            bool success = transferFrom(address(this), wolfOwner, denAvalibleToRelease);\r\n            require(success, \"Payment didn't go through!\");\r\n        }\r\n    }\r\n\r\n    function availableDenForWolf(uint _wolfId) public view returns(uint16 amountToClaim, uint denAvalibleToRelease) {\r\n        uint totalReceived = balanceOf(address(this)) + _totalReleased;\r\n        if (mintedPerWolf[_wolfId] < 36500) {\r\n            uint numberOfDays = (block.timestamp - _lastClaimTimestamp[_wolfId]) / (1 days); // change to minutes for testing\r\n            amountToClaim = uint16(numberOfDays * 10);\r\n            \r\n            uint _denAvalibleToRelease = ((totalReceived / 1700) - _released[_wolfId]);\r\n            denAvalibleToRelease = (_denAvalibleToRelease - (_denAvalibleToRelease % 1000000000000000000)) / 1000000000000000000;\r\n        } else {\r\n            denAvalibleToRelease = (totalReceived / 1700) - _released[_wolfId];\r\n        }\r\n    }\r\n\r\n    function _mintDen(address _address, uint16 _amount, uint _wolfId) private {\r\n        _mint(_address, _amount);\r\n        mintedPerWolf[_wolfId] += _amount;\r\n        _lastClaimTimestamp[_wolfId] = uint64(block.timestamp);\r\n    }\r\n\r\n}",
  "sourcePath": "D:\\WolfPackDenContracts\\Den_token\\contracts\\DenToken.sol",
  "compiler": {
    "name": "solc",
    "version": "0.8.0+commit.c7dfd78e.Emscripten.clang"
  },
  "schemaVersion": "3.4.3",
  "updatedAt": "2021-10-19T18:27:38.192Z",
  "networkType": "ethereum",
  "devdoc": {
    "kind": "dev",
    "methods": {
      "allowance(address,address)": {
        "details": "See {IERC20-allowance}."
      },
      "approve(address,uint256)": {
        "details": "See {IERC20-approve}. Requirements: - `spender` cannot be the zero address."
      },
      "balanceOf(address)": {
        "details": "See {IERC20-balanceOf}."
      },
      "cap()": {
        "details": "Returns the cap on the token's total supply."
      },
      "decimals()": {
        "details": "Returns the number of decimals used to get its user representation. For example, if `decimals` equals `2`, a balance of `505` tokens should be displayed to a user as `5.05` (`505 / 10 ** 2`). Tokens usually opt for a value of 18, imitating the relationship between Ether and Wei. This is the value {ERC20} uses, unless this function is overridden; NOTE: This information is only used for _display_ purposes: it in no way affects any of the arithmetic of the contract, including {IERC20-balanceOf} and {IERC20-transfer}."
      },
      "decreaseAllowance(address,uint256)": {
        "details": "Atomically decreases the allowance granted to `spender` by the caller. This is an alternative to {approve} that can be used as a mitigation for problems described in {IERC20-approve}. Emits an {Approval} event indicating the updated allowance. Requirements: - `spender` cannot be the zero address. - `spender` must have allowance for the caller of at least `subtractedValue`."
      },
      "getLastClaimTimestampForWolf(uint256)": {
        "details": "getter function to get the last claim timestamp for a specific wolf ID"
      },
      "increaseAllowance(address,uint256)": {
        "details": "Atomically increases the allowance granted to `spender` by the caller. This is an alternative to {approve} that can be used as a mitigation for problems described in {IERC20-approve}. Emits an {Approval} event indicating the updated allowance. Requirements: - `spender` cannot be the zero address."
      },
      "name()": {
        "details": "Returns the name of the token."
      },
      "owner()": {
        "details": "Returns the address of the current owner."
      },
      "renounceOwnership()": {
        "details": "Leaves the contract without owner. It will not be possible to call `onlyOwner` functions anymore. Can only be called by the current owner. NOTE: Renouncing ownership will leave the contract without an owner, thereby removing any functionality that is only available to the owner."
      },
      "setWolfPackContractAddress(address)": {
        "details": "sets the Wolf Pack contract address (genesis wolfs)"
      },
      "symbol()": {
        "details": "Returns the symbol of the token, usually a shorter version of the name."
      },
      "totalSupply()": {
        "details": "See {IERC20-totalSupply}."
      },
      "transfer(address,uint256)": {
        "details": "See {IERC20-transfer}. Requirements: - `recipient` cannot be the zero address. - the caller must have a balance of at least `amount`."
      },
      "transferFrom(address,address,uint256)": {
        "details": "See {IERC20-transferFrom}. Emits an {Approval} event indicating the updated allowance. This is not required by the EIP. See the note at the beginning of {ERC20}. Requirements: - `sender` and `recipient` cannot be the zero address. - `sender` must have a balance of at least `amount`. - the caller must have allowance for ``sender``'s tokens of at least `amount`."
      },
      "transferOwnership(address)": {
        "details": "Transfers ownership of the contract to a new account (`newOwner`). Can only be called by the current owner."
      }
    },
    "version": 1
  },
  "userdoc": {
    "kind": "user",
    "methods": {},
    "version": 1
  }
}